S00F0000414E54415245532E7372656307
S11300000C949B000C94AD000C94AD000C94CE0C9D
S11300100C94AD000C94D20D0C94AD000C94AD0076
S11300200C94AD000C94AD000C94AD000C94AD0098
S11300300C94AD000C9470010C94AD000C94AD00C4
S11300400C94AF000C94AD000C94AD000C94AD0076
S11300500C94AD000C94AD000C94AD000C94AD0068
S11300600C94AD000C94AD00084AD73B3BCE016E16
S113007084BCBFFDC12F3D6C74319ABD56833DDAFB
S11300803D00C77F11BED9E4BB4C3E916BAAAABE0A
S1130090000000803F07634236B79BD8A71A39682F
S11300A05618AEBAAB558C1D3CB7CC5763BD6DED3D
S11300B0FD753EF6177231BF000000803F05A84C65
S11300C0CDB2D44EB93836A9020C50B991868808FD
S11300D03CA6AAAA2ABE000000803F08000000BE79
S11300E0922449123EABAAAA2ABECDCCCC4C3E00E7
S11300F0000080BEABAAAAAA3E00000000BF000018
S113010000803F0000000000084178D3BB4387D142
S1130110133D190E3CC3BD4282AD2B3E68EC827682
S1130120BED98FE1A93E4C80EFFFBE01C4FF7F3FE3
S113013000000000000011241FBECFEFD8E0DEBF96
S1130140CDBF21E0A0E0B1E001C01D92AF3EB207F7
S1130150E1F70E94D8020C949E140C9400001F92A4
S11301600F920FB60F9211240F931F932F933F9367
S11301704F935F936F937F938F939F93AF93BF93AB
S113018000910101109102012091030130910401B9
S113019090910001B901A8014F5F5F4F6F4F7F4FEE
S11301A083E0890F8D3740F086E8890FB901A801F3
S11301B04E5F5F4F6F4F7F4F80930001409301016B
S11301C0509302016093030170930401809105012F
S11301D090910601A0910701B09108010196A11D1B
S11301E0B11D8093050190930601A0930701B0937C
S11301F00801BF91AF919F918F917F916F915F9112
S11302004F913F912F911F910F910F900FBE0F901F
S11302101F9018953FB78FB78F778FBF80910501D7
S113022090910601A0910701B091080126B5A89B01
S113023005C02F3F19F00196A11DB11D3FBFBA2F74
S1130240A92F982F8827820F911DA11DB11DBC01D4
S1130250CD01660F771F881F991F660F771F881FB0
S1130260991F08958230910538F0880F991F880FDF
S1130270991F05970197F1F708958770806480931B
S11302807C00EAE7F0E080818064808380917A00DA
S113029086FDFCCF209178008091790090E0982F22
S11302A08827822B08958FB780688FBF85B58260B9
S11302B085BD85B5816085BDEEE6F0E08081816015
S11302C08083EAE7F0E080818460808380818260BB
S11302D080838081816080838081806880830895A9
S11302E01F920F920FB60F9211248F939F9380EE5B
S11302F0809385001092840095B180E1892785B9A7
S11303009F918F910F900FBE0F901F901895E1E869
S1130310F0E08081816080830895E1E8F0E08081ED
S11303208E7F808308958FB780688FBFEFE6F0E0FB
S1130330808181608083089584EA8093BC008091E9
S1130340BC008823E4F7089584E98093BC0080917D
S1130350BC0084FDFCCF08958093BB0084E88093A7
S1130360BC008091BC008823E4F708950E949C019E
S113037080ED0E94AC018BE60E94AC0180E00E94FB
S1130380AC010E94A4010E949C0180ED0E94AC017A
S11303908BE10E94AC0188E00E94AC010E94A401A0
S11303A00E949C0180ED0E94AC018CE10E94AC0192
S11303B080E10E94AC010E94A4010E949C0180ED96
S11303C00E94AC018AE10E94AC0183E00E94AC016E
S11303D00E94A401089584EC8093BC008091BC0029
S11303E08823E4F78091BB00089584E88093BC00DF
S11303F08091BC008823E4F78091BB000895CF93DB
S1130400DF930E949C0180ED0E94AC018BE30E946B
S1130410AC010E949C0181ED0E94AC010E94EB01A1
S1130420C82FD0E0DC2FCC270E94EB01BE01682B43
S1130430072E000C880B990B0E94231120E030E05A
S113044040E859E30E94071260931A0170931B015C
S113045080931C0190931D010E94EB01C82FD0E0F2
S1130460DC2FCC270E94EB01BE01682B072E000C69
S1130470880B990B0E94231120E030E040E859E3F7
S11304800E94071260931E0170931F018093200144
S1130490909321010E94EB01C82FD0E0DC2FCC27E0
S11304A00E94EB01BE01682B072E000C880B990BF0
S11304B00E94231120E030E040E859E30E94071233
S11304C060930C0170930D0180930E0190930F01C2
S11304D00E94EB01C82FD0E0DC2FCC270E94EB0157
S11304E0C82BD0931901C09318010E94EB01C82FA7
S11304F0D0E0DC2FCC270E94EB01BE01682B072E35
S1130500000C880B990B0E94231120E030E043E893
S113051052E40E9479106093140170931501809342
S11305201601909317010E94EB01C82FD0E0DC2F35
S1130530CC270E94EB01BE01682B072E000C880B10
S1130540990B0E94231120E030E043E852E40E941A
S11305507910609322017093230180932401909376
S113056025010E94EB01C82FD0E0DC2FCC270E948C
S1130570F501BE01682B072E000C880B990B0E9415
S1130580231120E030E043E852E40E9479106093A4
S113059010017093110180931201909313010E9432
S11305A0A401DF91CF9108958CE08093B800089561
S11305B0CF93DF93CDB7DEB764970FB6F894DEBF61
S11305C00FBECDBF0E9453010E94D4020E9493012A
S11305D08AB1806F8AB984B1806384B985B180623D
S11305E085B90E94B601E12CF12C23C0C7016EE14C
S11305F070E00E947614892B11F40E948701C701D0
S11306006CE370E00E947614892B11F40E948D0132
S11306108BB1806F8BB988EE93E00E9432018BB16D
S11306208F708BB988EB9BE00E9432012FEFE21AA6
S1130630F20A32EEE31634E0F306C4F20E948D01AE
S1130640E12CF12C73C0C7016FE070E00E947614B6
S1130650892B11F40E948701C7016EE170E00E94AA
S11306607614892B11F40E948D010E94FF012091C0
S113067014013091150140911601509117016091B8
S113068034017091350180913601909137010E94B7
S1130690D90F6093340170933501809336019093A0
S11306A0370120912201309123014091240150917E
S11306B02501609168017091690180916A019091AE
S11306C06B010E94D90F6093680170936901809354
S11306D06A0190936B0120911001309111014091B6
S11306E01201509113016091400170914101809178
S11306F04201909143010E94D90F6093400170938D
S1130700410180934201909343018BB1806F8BB977
S113071088EE93E00E9432018BB18F708BB988EB25
S11307209BE00E9432014FEFE41AF40A88EEE816C7
S113073083E0F8060CF487CF0E948D0120E030E0BE
S11307404AE754E460913401709135018091360197
S1130750909137010E9479106093340170933501B0
S1130760809336019093370120E030E04AE754E467
S1130770609168017091690180916A0190916B01A7
S11307800E947910609368017093690180936A01F3
S113079090936B0120E030E04AE754E4609140011B
S11307A07091410180914201909143010E9479101E
S11307B060934001709341018093420190934301FF
S11307C00E94B60F1092700180E00E943D018F5B81
S11307D09F4FBC01990F880B990B0E94231128E5A8
S11307E038EA4DE95FE30E9407120E94EB10709310
S11307F049016093480185B18F7D85B90E940A0142
S113080060932C0170932D0180932E0190932F01FE
S113081040901E0150901F016090200170902101B2
S113082060911A0170911B0180911C0190911D012E
S113083020E030E040E050E40E9474126B017C013F
S113084060910C0170910D0180910E0190910F0146
S113085020E030E040E050E40E9474124B015C015F
S1130860A5019401C701B6010E94D90F0E94D212BA
S11308709B01AC01C301B2010E9479100E94451092
S11308802BE13FE245E652E40E94071260936C01BB
S113089070936D0180936E0190936F0140901A01E3
S11308A050901B0160901C0170901D0160911E010D
S11308B070911F01809120019091210120E030E08E
S11308C040E050E40E9474126B017C0160910C01C1
S11308D070910D0180910E0190910F0120E030E0A4
S11308E040E050E40E9474124B015C01A5019401A4
S11308F0C701B6010E94D90F0E94D2129B01AC011C
S1130900C301B2010E9479100E94451090582BE156
S11309103FE245E652E40E9407122B013C0160933A
S113092071017093720180937301909374016091CB
S11309301401709115018091160190911701209175
S113094034013091350140913601509137010E94B4
S1130950D80F69877A878B879C872FE632E143E833
S11309605BE30E940712209164013091650140917C
S11309706601509167010E94D90F2BE33FED4FE7C9
S11309805FE30E9407124B015C01C0906C01D090A0
S11309906D01E0906E01F0906F012FE632E143E0CB
S11309A05AE3C701B6010E9407129B01AC01C501BD
S11309B0B4010E94D90F698B7A8B8B8B9C8B6091CD
S11309C022017091230180912401909125012091AD
S11309D068013091690140916A0150916B010E9454
S11309E0D80F6D877E878F87988B2FE632E143E897
S11309F05BE30E94071220916001309161014091F4
S1130A006201509163010E94D90F2BE33FED4FE740
S1130A105FE30E9407124B015C012FE632E143E0E1
S1130A205AE3C301B2010E9407129B01AC01C50144
S1130A30B4010E94D90F4B015C01609110017091C7
S1130A401101809112019091130120914001309184
S1130A50410140914201509143010E94D80F6983A2
S1130A607A838B839C832FE632E143E85BE30E9425
S1130A70071220915C0130915D0140915E0150911B
S1130A805F010E94D90F60935C0170935D018093B4
S1130A905E0190935F0127E931E642E958E36981F9
S1130AA07A818B819C810E9407120E94C4126D83FB
S1130AB07E838F8398879B01AC01C501B4010E949A
S1130AC007129B01AC0169897A898B899C890E94F0
S1130AD0D90F9B01AC01609364017093650180930D
S1130AE06601909367016D817E818F8198850E9454
S1130AF007129B01AC01C501B4010E94D80F609399
S1130B00600170936101809362019093630123E318
S1130B1033E343E35FE360913001709131018091ED
S1130B203201909133010E9407124B015C012AE9C2
S1130B3039E949E95EE369857A858B859C850E945C
S1130B4007129B01AC01C501B4010E94D90F609347
S1130B50300170933101809332019093330123E388
S1130B6033E343E35FE36091440170914501809175
S1130B704601909147010E9407124B015C012AE94A
S1130B8039E949E95EE36D857E858F8598890E9400
S1130B9007129B01AC01C501B4010E94D90F6093F7
S1130BA0440170934501809346019093470123E3E8
S1130BB033E343E35FE360913C0170913D01809135
S1130BC03E0190913F010E9407124B015C012AE90A
S1130BD039E949E95EE369817A818B819C810E94CC
S1130BE007129B01AC01C501B4010E94D90F6093A7
S1130BF03C0170933D0180933E0190933F018091AD
S1130C00990190919A018A31A4E09A0754F42091B1
S1130C10D7013091D8012F3937401CF021E02093BF
S1130C2070018A3124E092070CF058C02091D7015A
S1130C303091D8012E3036400CF050C02091700114
S1130C40213009F04BC022E020937001C09264016E
S1130C50D0926501E0926601F092670140926001D2
S1130C6050926101609262017092630110925C0182
S1130C7010925D0110925E0110925F011092AB011F
S1130C801092AC011092AD011092AE011092A70126
S1130C901092A8011092A9011092AA0110929B012E
S1130CA010929C0110929D0110929E011092890154
S1130CB010928A0110928B0110928C011092A30160
S1130CC01092A4011092A5011092A60110928D0118
S1130CD010928E0110928F01109290018A319440EB
S1130CE06CF48091D7019091D8018A31944034F406
S1130CF080917001823011F4109270010E94090FEA
S1130D000E944E096091480170914901072E000C20
S1130D10880B990B0E9423112FE135E84BE65FE322
S1130D200E9407126B017C0180E00E943D018F5BF1
S1130D309F4FBC01990F880B990B0E94231129E145
S1130D403AEC49EC5DE30E9407129B01AC01C70138
S1130D50B6010E94D90F0E94EB1070934901609371
S1130D604801695572406F38714010F40E94870140
S1130D7080917001823009F099C18091990190911C
S1130D809A018930974064F080E090E0A1EEB4E4E9
S1130D908093B7019093B801A093B901B093BA01BD
S1130DA08091B7019091B801A091B901B091BA01B5
S1130DB089839A83AB83BC834090750150907601FC
S1130DC06090770170907801A3019201BC01CD017C
S1130DD00E94D80F6D837E838F839887C090B30160
S1130DE0D090B401E090B501F090B601A70196014E
S1130DF00E94D80F80907D0190907E01A0907F0189
S1130E00B0908001A50194010E94D80F0E94EB10BC
S1130E1069877A878B879C87A985BA85B0932901CE
S1130E20A0932801A301920169817A818B819C811D
S1130E300E94D90F2B013C01A70196010E94D80FF3
S1130E409B01AC01C501B4010E94D90F0E94EB10B3
S1130E5069837A838B839C8329813A8130932B0124
S1130E6020932A01A3019201C701B6010E94D90F60
S1130E70A50194010E94D80F0E94EB102B013C01A4
S1130E807093570160935601A70196016D817E818D
S1130E908F8198850E94D90F9B01AC01C501B401D3
S1130EA00E94D90F0E94EB104B015C017093270143
S1130EB060932601E0904801F0904901C7018152F6
S1130EC09340873B914008F088C0A985BA85BD014D
S1130ED0BB0F880B990B0E9423116D837E838F8334
S1130EE0988768ED74E06E197F09072E000C880B53
S1130EF0990B0E94231120E030EC4AE555E40E944E
S1130F0079106B017C019B01AC016D817E818F8125
S1130F1098850E9407129B01AC016D817E818F81AF
S1130F2098850E94D90F0E94EB1070932901609359
S1130F30280129813A81B901330F880B990B0E944A
S1130F40231169837A838B839C839B01AC01C70142
S1130F50B6010E9407129B01AC0169817A818B81E1
S1130F609C810E94D90F0E94EB1070932B01609317
S1130F702A01B201550C880B990B0E9423112B01F5
S1130F803C019B01AC01C701B6010E9407129B0101
S1130F90AC01C301B2010E94D90F0E94EB107093FF
S1130FA0570160935601B401990C880B990B0E9468
S1130FB023114B015C019B01AC01C701B6010E94E6
S1130FC007129B01AC01C501B4010E94D90F0E9414
S1130FD0EB10709327016093260180912801909172
S1130FE029018C34944034F48CE494E090932901E6
S1130FF08093280180912A0190912B018C34944094
S113100034F48CE494E090932B0180932A01809132
S11310105601909157018C34944034F48CE494E05C
S11310209093570180935601809126019091270156
S11310308C34944034F48CE494E0909327018093AE
S113104026018091280190912901813D974034F037
S113105080ED97E0909329018093280180912A01E3
S113106090912B01813D974034F080ED97E090936F
S11310702B0180932A018091560190915701813D63
S1131080974034F080ED97E0909357018093560198
S11310908091260190912701813D9740CCF080ED0D
S11310A097E0909327018093260112C088EE93E085
S11310B0909329018093280190932B0180932A0116
S11310C090935701809356019093270180932601B2
S11310D00E940A01C0902C01D0902D01E0902E01B5
S11310E0F0902F01DC01CB018C199D09AE09BF09D9
S11310F0803A9F40A105B10558F30E940A0160930C
S11311002C0170932D0180932E0190932F018BB1AC
S1131110806F8BB980912C0190912D01A0912E01AB
S1131120B0912F014091280150912901052E000C06
S1131130660B770B480F591F6A1F7B1F40934A01A8
S113114050934B0160934C0170934D0140912A01DF
S113115050912B01052E000C660B770B480F591F7D
S11311606A1F7B1F409358015093590160935A01A1
S113117070935B014091560150915701052E000C6C
S1131180660B770B480F591F6A1F7B1F409338016A
S11311905093390160933A0170933B0140912601C9
S11311A050912701052E000C660B770B840F951FB9
S11311B0A61FB71F80934E0190934F01A093500137
S11311C0B09351010E94FF010E946A0E62C00E9406
S11311D00A016093520170935301809354019093D8
S11311E05501C0904A01D0904B01E0904C01F09021
S11311F04D016C157D058E059F0518F08BB18F7E12
S11312008BB9409158015091590160915A017091E4
S11312105B018091520190915301A0915401B091CE
S1131220550184179507A607B70718F08BB18F7D72
S11312308BB9409138015091390160913A01709114
S11312403B018091520190915301A0915401B091BE
S1131250550184179507A607B70718F08BB18F7B44
S11312608BB940914E0150914F01609150017091A2
S113127051018091520190915301A0915401B09178
S1131280550184179507A607B70718F08BB18F7718
S11312908BB98BB1803108F09ACFBACA8F929F92E2
S11312A0AF92BF92CF92DF92EF92FF9220916401AE
S11312B0309165014091660150916701609185010B
S11312C07091860180918701909188010E94D80FC6
S11312D020E030E040E850E40E9407126093790176
S11312E070937A0180937B0190937C01209130016B
S11312F03091310140913201509133010E94D80F55
S11313004B015C0180910B01811123C080919901F3
S113131090919A018C349440E4F02CEB34E743E947
S11313205CE3C501B4010E9407129B01AC0160910A
S1131330AB017091AC018091AD019091AE010E941E
S1131340D90F6093AB017093AC018093AD0190937E
S1131350AE016091AB017091AC018091AD019091AF
S1131360AE0120E030E048EC53E40E94FA11181674
S113137064F480E090E0A8ECB3E48093AB01909334
S1131380AC01A093AD01B093AE016091AB0170913B
S1131390AC018091AD019091AE0120E030E048ECC9
S11313A053EC0E947410882364F480E090E0A8EC6D
S11313B0B3EC8093AB019093AC01A093AD01B093D7
S11313C0AE0123E333E343E150E4C501B4010E94D9
S11313D007122091AB013091AC014091AD015091C5
S11313E0AE010E94D90F6B017C012091A7013091BD
S11313F0A8014091A9015091AA01C501B4010E941C
S1131400D80F20E030E040EE51E40E9407129B0127
S1131410AC01C701B6010E94D90F6B017C01609336
S1131420B3017093B4018093B5019093B60120E0A9
S113143030E048EC53E40E94FA11181654F020E00E
S113144030E048EC53ECC701B6010E9474108823C5
S11314508CF4A7019601C501B4010E94071220E093
S113146030E0A9010E94FA11181624F481E0809357
S11314700B0102C010920B0120E030E048EC53E471
S1131480C701B6010E94FA11181664F480E090E0D6
S1131490A8ECB3E48093B3019093B401A093B50195
S11314A0B093B6016091B3017091B4018091B5011C
S11314B09091B60120E030E048EC53EC0E947410A7
S11314C0882364F480E090E0A8ECB3EC8093B3014B
S11314D09093B401A093B501B093B6018092A70193
S11314E09092A801A092A901B092AA012091600152
S11314F030916101409162015091630160919501C5
S11315007091960180919701909198010E94D80F53
S113151020E030E040E850E40E94071260939F010D
S11315207093A0018093A1019093A20120914401A2
S11315303091450140914601509147010E94D80FD6
S11315404B015C0180910A01811123C080919901B2
S113155090919A018C349440E4F02CEB34E743E905
S11315605CE3C501B4010E9407129B01AC016091C8
S11315709B0170919C0180919D0190919E010E941C
S1131580D90F60939B0170939C0180939D0190936C
S11315909E0160919B0170919C0180919D019091AD
S11315A09E0120E030E048EC53E40E94FA11181642
S11315B064F480E090E0A8ECB3E480939B01909302
S11315C09C01A0939D01B0939E0160919B01709139
S11315D09C0180919D0190919E0120E030E048ECB7
S11315E053EC0E947410882364F480E090E0A8EC2B
S11315F0B3EC80939B0190939C01A0939D01B093C5
S11316009E0123E333E343E150E4C501B4010E94A6
S1131610071220919B0130919C0140919D015091B2
S11316209E010E94D90F6B017C01209189013091A8
S11316308A0140918B0150918C01C501B4010E9433
S1131640D80F20E030E040EF51E40E9407129B01E4
S1131650AC01C701B6010E94D90F6B017C016093F4
S1131660750170937601809377019093780120E05F
S113167030E048EC53E40E94FA11181654F020E0CC
S113168030E048EC53ECC701B6010E947410882383
S11316908CF4A7019601C501B4010E94071220E051
S11316A030E0A9010E94FA11181624F481E0809315
S11316B00A0102C010920A0120E030E048EC53E431
S11316C0C701B6010E94FA11181664F480E090E094
S11316D0A8ECB3E48093750190937601A09377010D
S11316E0B0937801609175017091760180917701D2
S11316F09091780120E030E048EC53EC0E947410A3
S1131700882364F480E090E0A8ECB3EC8093750146
S113171090937601A0937701B09378018092890128
S113172090928A01A0928B01B0928C0160919101F8
S113173070919201809193019091940120E030E0A6
S113174040E850E40E940712609381017093820183
S1131750809383019093840120913C0130913D0159
S113176040913E0150913F010E94D80F6B017C01D2
S11317706093AF017093B0018093B1019093B20173
S113178080910901811123C08091990190919A015E
S11317908C349440E4F02AE037ED43EA5DE3C7017A
S11317A0B6010E9407129B01AC016091A3017091E4
S11317B0A4018091A5019091A6010E94D90F609384
S11317C0A3017093A4018093A5019093A601609155
S11317D0A3017091A4018091A5019091A60120E03C
S11317E030E048EC53E40E94FA11181664F480E0E7
S11317F090E0A8ECB3E48093A3019093A401A09398
S1131800A501B093A6016091A3017091A4018091F8
S1131810A5019091A60120E030E048EC53EC0E9431
S11318207410882364F480E090E0A8ECB3EC809317
S1131830A3019093A401A093A501B093A60126E669
S113184036E646EA5FE3C701B6010E94071220911B
S1131850A3013091A4014091A5015091A6010E94D9
S1131860D90F4B015C0120918D0130918E01409183
S11318708F0150919001C701B6010E94D80F20E05A
S113188030E0A9010E9407129B01AC01C501B4011B
S11318900E94D90F4B015C0160937D0170937E011E
S11318A080937F019093800120E030E048EC53E482
S11318B00E94FA11181654F020E030E048EC53EC82
S11318C0C501B4010E94741088238CF4A50194010D
S11318D0C701B6010E94071220E030E0A9010E946E
S11318E0FA11181624F481E08093090102C01092C1
S11318F0090120E030E048EC53E4C501B4010E9442
S1131900FA11181664F480E090E0A8ECB3E4809334
S11319107D0190937E01A0937F01B093800160913B
S11319207D0170917E0180917F019091800120E082
S113193030E048EC53EC0E947410882364F480E097
S113194090E0A8ECB3EC80937D0190937E01A0938A
S11319507F01B0938001C0928D01D0928E01E092FC
S11319608F01F09290016091990170919A01072E74
S1131970000C880B990B0E9423116093B70170939C
S1131980B8018093B9019093BA01FF90EF90DF9072
S1131990CF90BF90AF909F908F9008951F920F9219
S11319A00FB60F9211242F933F934F935F936F932E
S11319B07F938F939F93AF93BF93EF93FF930E9473
S11319C00A016093E5017093E6018093E701909327
S11319D0E801189B18C08091E901811130C081E0B1
S11319E08093E9018091E5019091E601A091E701DE
S11319F0B091E8018093BF019093C001A093C1010D
S1131A00B093C2011CC08091E9018130C1F41092ED
S1131A10E9018091E5019091E601A091E701B0917F
S1131A20E8014091BF015091C0016091C1017091E2
S1131A30C201841B950B9093DA018093D901199B01
S1131A4018C08091EA01811130C081E08093EA01DD
S1131A508091E5019091E601A091E701B091E80140
S1131A608093C3019093C401A093C501B093C601B0
S1131A701CC08091EA018130C1F41092EA01809186
S1131A80E5019091E601A091E701B091E801409150
S1131A90C3015091C4016091C5017091C601841BBA
S1131AA0950B9093DC018093DB011A9B18C0809105
S1131AB0EB01811130C081E08093EB018091E5015D
S1131AC09091E601A091E701B091E8018093C701EC
S1131AD09093C801A093C901B093CA011CC080911E
S1131AE0EB018130C1F41092EB018091E5019091FA
S1131AF0E601A091E701B091E8014091C70150913E
S1131B00C8016091C9017091CA01841B950B90931F
S1131B10DE018093DD011B9B18C08091EC018111D3
S1131B2030C081E08093EC018091E5019091E60161
S1131B30A091E701B091E8018093CB019093CC018F
S1131B40A093CD01B093CE011CC08091EC018130F3
S1131B50C1F41092EC018091E5019091E601A0910D
S1131B60E701B091E8014091CB015091CC01609123
S1131B70CD017091CE01841B950B9093E00180936D
S1131B80DF01FF91EF91BF91AF919F918F917F9171
S1131B906F915F914F913F912F910F900FBE0F90D6
S1131BA01F9018951F920F920FB60F9211242F9326
S1131BB03F934F935F936F937F938F939F93AF93D1
S1131BC0BF93EF93FF930E940A016093E501709322
S1131BD0E6018093E7019093E8014A9B18C0809145
S1131BE0ED01811130C081E08093ED018091E50128
S1131BF09091E601A091E701B091E8018093CF01B3
S1131C009093D001A093D101B093D2011CC08091D4
S1131C10ED018130C1F41092ED018091E5019091C4
S1131C20E601A091E701B091E8014091CF01509104
S1131C30D0016091D1017091D201841B950B9093D6
S1131C40E2018093E1014B9B18C08091EE01811168
S1131C5030C081E08093EE018091E5019091E6012E
S1131C60A091E701B091E8018093D3019093D4014E
S1131C70A093D501B093D6011CC08091EE018130B0
S1131C80C1F41092EE018091E5019091E601A091DA
S1131C90E701B091E8014091D3015091D4016091E2
S1131CA0D5017091D601841B950B9093E401809328
S1131CB0E301FF91EF91BF91AF919F918F917F913C
S1131CC06F915F914F913F912F910F900FBE0F90A5
S1131CD01F901895CF93DF93C9EDD1E06881798186
S1131CE0072E000C880B990B0E94231120E030E092
S1131CF04AE754E40E94D80F20E030E04AE754E475
S1131D000E94071220E030E04AE754E40E94791070
S1131D1020E030E04AE754E40E94D90F0E94EB101F
S1131D207093BC016093BB016A817B81072E000C18
S1131D30880B990B0E94231120E030E04AE754E419
S1131D400E94D80F20E030E04AE754E40E940712D2
S1131D5020E030E04AE754E40E94791020E030E0CB
S1131D604AE754E40E94D90F0E94EB107093BE011D
S1131D706093BD016C817D81072E000C880B990B4B
S1131D800E94231120E030E04AE754E40E94D80F77
S1131D9020E030E04AE754E40E94071220E030E0FB
S1131DA04AE754E40E94791020E030E04AE754E422
S1131DB00E94D90F0E94EB1070939A0160939901CD
S1131DC06E817F81072E000C880B990B0E942311D2
S1131DD020E030E04AE754E40E94D80F20E030E0ED
S1131DE04AE754E40E94071220E030E04AE754E452
S1131DF00E94791020E030E44CE754E40E94D90FAB
S1131E000E94EB107093D8016093D701DF91CF91BA
S1131E100895109285011092860110928701109204
S1131E2088016091BB017091BC01CB01825D95403A
S1131E30459730F1072E000C880B990B0E94231153
S1131E4020E030E04AE754E40E94D80F20E030E07C
S1131E5040EA52E40E94071220E030E04AE754E4EA
S1131E600E94791020E030E040E252E40E94D80F52
S1131E706093850170938601809387019093880114
S1131E801092950110929601109297011092980168
S1131E906091BD017091BE01CB01825D9540459773
S1131EA030F1072E000C880B990B0E94231120E0BF
S1131EB030E04AE754E40E94D80F20E030E040EAE2
S1131EC052E40E94071220E030E04AE754E40E9402
S1131ED0791020E030E040E252E40E94D80F609391
S1131EE095017093960180939701909398011092B5
S1131EF091011092920110929301109294016091B9
S1131F00D7017091D801CB01825D9540459768F166
S1131F108091990190919A018B31944034F1072E6C
S1131F20000C880B990B0E94231120E030E04AE753
S1131F3054E40E94D80F20E030E040EA52EC0E94C2
S1131F40071220E030E04AE754E40E94791020E0D0
S1131F5030E040E252E40E94D90F60939101709303
S1131F609201809393019093940108958FB78068B0
S1131F708FBFA8E6B0E08C9181608C93EBE6F0E033
S1131F80808181608083808182608083808184609D
S1131F9080838081886080838C9184608C93EDE65B
S1131FA0F0E08081846080838081886080830895EC
S1131FB05058BB27AA270E94F00F0C94C0110E940E
S1131FC0B21138F00E94B91120F039F49F3F19F48E
S1131FD026F40C9488110EF4E095E7FB0C9482111E
S1131FE0E92F0E94D11158F3BA17620773078407C7
S1131FF0950720F079F4A6F50C94F3110EF4E0950E
S11320000B2EBA2FA02D0B01B90190010C01CA01AE
S1132010A0011124FF27591B99F0593F50F4503E59
S113202068F11A16F040A22F232F342F4427585F4B
S1132030F3CF469537952795A795F0405395C9F763
S11320407EF41F16BA0B620B730B840BBAF091501B
S1132050A1F0FF0FBB1F661F771F881FC2F70EC0BA
S1132060BA0F621F731F841F48F48795779567958D
S1132070B795F7959E3F08F0B0CF9395880F08F079
S11320809927EE0F979587950895DF93DD27B92F4C
S1132090BF7740E85FE31616170648075B0718F496
S11320A0D92F0E94FF119F938F937F936F930E9468
S11320B01213E8E6F0E00E948B110E94C0112F91E8
S11320C03F914F915F910E941A12DD2351F0905875
S11320D0A2EA2AED3FE049EC5FE3D0785D270E9455
S11320E0F00FDF910C94C0110E945E1108F481E09E
S11320F008950E948D100C94C0110E94B91158F0DB
S11321000E94B21140F029F45F3F29F00C9482112F
S113211051110C94F4110C9488110E94D11168F39C
S11321209923B1F3552391F3951B550BBB27AA278C
S113213062177307840738F09F5F5F4F220F331FC6
S1132140441FAA1FA9F335D00E2E3AF0E0E832D08E
S113215091505040E695001CCAF72BD0FE2F29D091
S1132160660F771F881FBB1F261737074807AB0763
S1132170B0E809F0BB0B802DBF01FF2793585F4FD8
S11321803AF09E3F510578F00C9482110C94F411AE
S11321905F3FE4F3983ED4F3869577956795B795BA
S11321A0F7959F5FC9F7880F911D9695879597F9C5
S11321B00895E1E0660F771F881FBB1F621773073E
S11321C08407BA0720F0621B730B840BBA0BEE1F53
S11321D088F7E09508950E94F2106894B1110C9468
S11321E0F41108950E94D91188F09F5798F0B92FDF
S11321F09927B751B0F0E1F0660F771F881F991F38
S11322001AF0BA95C9F714C0B13091F00E94F311D5
S1132210B1E008950C94F311672F782F8827B85FE5
S113222039F0B93FCCF3869577956795B395D9F78F
S11322303EF490958095709561957F4F8F4F9F4F99
S11322400895E89409C097FB3EF4909580957095A5
S113225061957F4F8F4F9F4F9923A9F0F92F96E9EE
S1132260BB279395F695879577956795B795F11163
S1132270F8CFFAF4BB0F11F460FF1BC06F5F7F4F00
S11322808F4F9F4F16C0882311F096E911C0772312
S113229021F09EE8872F762F05C0662371F096E81B
S11322A0862F70E060E02AF09A95660F771F881FEA
S11322B0DAF7880F9695879597F90895990F00088E
S11322C0550FAA0BE0E8FEEF16161706E807F90704
S11322D0C0F012161306E407F50798F0621B730B9F
S11322E0840B950B39F40A2661F0232B242B252B20
S11322F021F408950A2609F4A140A6958FEF811DC3
S1132300811D089597F99F6780E870E060E0089563
S11323109FEF80EC0895DF93CF931F930F93FF9269
S1132320EF92DF927B018C01689406C0DA2EEF01F4
S11323300E941A12FE01E894A591259135914591C8
S11323405591A6F3EF010E94F00FFE019701A80139
S1132350DA9469F7DF90EF90FF900F911F91CF917E
S1132360DF91089500240A94161617061806090624
S1132370089500240A9412161306140605060895F7
S1132380092E0394000C11F4882352F0BB0F40F47F
S1132390BF2B11F460FF04C06F5F7F4F8F4F9F4FBF
S11323A0089557FD9058440F551F59F05F3F71F041
S11323B04795880F97FB991F61F09F3F79F08795A8
S11323C00895121613061406551FF2CF4695F1DF31
S11323D008C0161617061806991FF1CF86957105C1
S11323E0610508940895E894BB2766277727CB01F5
S11323F097F908950E945E1108F48FEF08959B01E8
S1132400AC0160E070E080E89FE30C9479100E94D6
S11324101A120C94C0110E94B21138F00E94B91122
S113242020F0952311F00C9482110C94881111243E
S11324300C94F4110E94D11170F3959FC1F3950F80
S113244050E0551F629FF001729FBB27F00DB11D34
S1132450639FAA27F00DB11DAA1F649F6627B00DC4
S1132460A11D661F829F2227B00DA11D621F739FAD
S1132470B00DA11D621F839FA00D611D221F749FBB
S11324803327A00D611D231F849F600D211D822F02
S1132490762F6A2F11249F5750409AF0F1F0882329
S11324A04AF0EE0FFF1FBB1F661F771F881F915056
S11324B05040A9F79E3F510580F00C9482110C9472
S11324C0F4115F3FE4F3983ED4F3869577956795CE
S11324D0B795F795E7959F5FC1F7FE2B880F911D80
S11324E09695879597F90895FA01EE0FFF1F309698
S11324F021053105A1F16115710561F48038BFE34F
S11325009B0749F168949038810561F08038BFEFEA
S11325109B0741F099234AF5FF3FE1053105210569
S113252019F1E8940894E795D901AA2329F4AB2F6B
S1132530BE2FF85FD0F310C0FF5F70F4A695E0F7EC
S1132540F73950F019F0FF3A38F49F779F930DD084
S11325500F9007FC9058089546F00C94881160E0A1
S113256070E080E89FE308954FE79F775F934F9370
S11325703F932F930E94E6132F913F914F915F91C8
S11325800E9407120C941E139F930E9467130F90CE
S113259007FCEE5F0C94901319F416F40C94881154
S11325A00C9450130E94D911B8F39923C9F3B6F3CC
S11325B09F57550B87FF0E945E130024A0E640EA54
S11325C0900180585695979528F4805C660F771F84
S11325D0881F20F026173707480730F4621B730B57
S11325E0840B202931294A2BA6951794079420257A
S11325F031254A2758F7660F771F881F20F02617C2
S11326003707480730F4620B730B840B200D311D20
S1132610411DA09581F7B901842F9158880F969593
S1132620879508959B01AC010C94071229F416F0C8
S11326300C9482110C94F3110C9488110E94D911FA
S1132640A8F39638A0F707F80F92E8942BE33AEA38
S113265048EB5FE70E941D120F920F920F924DB745
S11326605EB70F920E942E14E5E9F0E00E948B11F0
S11326704F915F91EF91FF91E595EE1FFF1F49F098
S1132680FE57E0684427EE0F441FFA95E1F74195A1
S1132690550B0E94A8130F9007FE0C94FF11089588
S11326A09F3F31F0915020F4879577956795B795C2
S11326B0880F911D9695879597F9089591505040EC
S11326C0660F771F881FD2F708950C9488110E9413
S11326D0D911D8F3E894E0E0BB279F57F0F02AED36
S11326E03FE049EC06C0EE0FBB0F661F771F881F43
S11326F028F0B23A62077307840728F0B25A620BD3
S1132700730B840BE3959A9572F7803830F49A959D
S1132710BB0F661F771F881FD2F790480C94521383
S1132720EF93E0FF07C0A2EA2AED3FE049EC5FEB3C
S11327300E94F00F0E94C0110F90039401FC905866
S1132740EDEBF0E00C9462140C9482110C94501391
S11327500E94D911D8F39923C9F3940F511DA3F3FF
S11327609150504094F059F0882332F0660F771F4F
S1132770881F91505040C1F79E3F51052CF7880F98
S1132780911D9695879597F908955F3FACF0983E13
S11327909CF0BB27869577956795B79508F4B1604B
S11327A09395C1F7BB0F58F711F460FFE8CF6F5F43
S11327B07F4F8F4F9F4FE3CF0C94F41116F00C947E
S11327C050130C94881168940C9482110E94D911AE
S11327D0A8F39923C1F3AEF3DF93CF931F930F9321
S11327E0FF92C92FDD2788232AF02197660F771FD0
S11327F0881FDAF720E030E040E85FEB9FE3883998
S113280020F0803E38F021968F770E94D90FEBEDAF
S1132810F0E004C00E94D90FE8E0F1E00E948B11BF
S11328208B01BE01EC01FB2E6F5771097595771F63
S1132830880B990B0E94231128E132E741E35FE3FF
S11328400E941A12AF2D9801AE01FF900F911F91B3
S1132850CF91DF910E94F00F0C94C011FA01DC01BA
S1132860AA0FBB1F9B01AC01BF5728F422273327B3
S11328704427507820C0B75190F4AB2F00244695DC
S113288037952795011CA395D2F3002071F0220FF0
S1132890331F441FB395DAF30ED00C94D80F613074
S11328A07105A0E88A07B94630F49B01AC0166279C
S11328B0772788279078309621F0208331834283CC
S11328C0538308959F938F937F936F93FF93EF9315
S11328D09B01AC010E940712EF91FF910E948B11A2
S11328E02F913F914F915F910C94071297FB072E04
S11328F016F4009407D077FD09D00E948A1407FCCF
S113290005D03EF4909581959F4F089570956195FB
S11329107F4F0895AA1BBB1B51E107C0AA1FBB1F11
S1132920A617B70710F0A61BB70B881F991F5A9557
S1132930A9F780959095BC01CD010895F894FFCF37
S9030000FC
